{
  "_format": "hh-sol-artifact-1",
  "contractName": "NftInstagram",
  "sourceName": "contracts/NftInstagram.sol",
  "abi": [
    {
      "inputs": [
        {
          "internalType": "string",
          "name": "tokenName",
          "type": "string"
        },
        {
          "internalType": "string",
          "name": "tokenSymbol",
          "type": "string"
        }
      ],
      "stateMutability": "nonpayable",
      "type": "constructor"
    },
    {
      "anonymous": false,
      "inputs": [
        {
          "indexed": true,
          "internalType": "address",
          "name": "owner",
          "type": "address"
        },
        {
          "indexed": true,
          "internalType": "address",
          "name": "approved",
          "type": "address"
        },
        {
          "indexed": true,
          "internalType": "uint256",
          "name": "tokenId",
          "type": "uint256"
        }
      ],
      "name": "Approval",
      "type": "event"
    },
    {
      "anonymous": false,
      "inputs": [
        {
          "indexed": true,
          "internalType": "address",
          "name": "owner",
          "type": "address"
        },
        {
          "indexed": true,
          "internalType": "address",
          "name": "operator",
          "type": "address"
        },
        {
          "indexed": false,
          "internalType": "bool",
          "name": "approved",
          "type": "bool"
        }
      ],
      "name": "ApprovalForAll",
      "type": "event"
    },
    {
      "anonymous": false,
      "inputs": [
        {
          "indexed": false,
          "internalType": "address",
          "name": "account",
          "type": "address"
        }
      ],
      "name": "Paused",
      "type": "event"
    },
    {
      "anonymous": false,
      "inputs": [
        {
          "indexed": true,
          "internalType": "bytes32",
          "name": "role",
          "type": "bytes32"
        },
        {
          "indexed": true,
          "internalType": "bytes32",
          "name": "previousAdminRole",
          "type": "bytes32"
        },
        {
          "indexed": true,
          "internalType": "bytes32",
          "name": "newAdminRole",
          "type": "bytes32"
        }
      ],
      "name": "RoleAdminChanged",
      "type": "event"
    },
    {
      "anonymous": false,
      "inputs": [
        {
          "indexed": true,
          "internalType": "bytes32",
          "name": "role",
          "type": "bytes32"
        },
        {
          "indexed": true,
          "internalType": "address",
          "name": "account",
          "type": "address"
        },
        {
          "indexed": true,
          "internalType": "address",
          "name": "sender",
          "type": "address"
        }
      ],
      "name": "RoleGranted",
      "type": "event"
    },
    {
      "anonymous": false,
      "inputs": [
        {
          "indexed": true,
          "internalType": "bytes32",
          "name": "role",
          "type": "bytes32"
        },
        {
          "indexed": true,
          "internalType": "address",
          "name": "account",
          "type": "address"
        },
        {
          "indexed": true,
          "internalType": "address",
          "name": "sender",
          "type": "address"
        }
      ],
      "name": "RoleRevoked",
      "type": "event"
    },
    {
      "anonymous": false,
      "inputs": [
        {
          "indexed": true,
          "internalType": "address",
          "name": "from",
          "type": "address"
        },
        {
          "indexed": true,
          "internalType": "address",
          "name": "to",
          "type": "address"
        },
        {
          "indexed": true,
          "internalType": "uint256",
          "name": "tokenId",
          "type": "uint256"
        }
      ],
      "name": "Transfer",
      "type": "event"
    },
    {
      "anonymous": false,
      "inputs": [
        {
          "indexed": false,
          "internalType": "address",
          "name": "account",
          "type": "address"
        }
      ],
      "name": "Unpaused",
      "type": "event"
    },
    {
      "inputs": [],
      "name": "DEFAULT_ADMIN_ROLE",
      "outputs": [
        {
          "internalType": "bytes32",
          "name": "",
          "type": "bytes32"
        }
      ],
      "stateMutability": "view",
      "type": "function"
    },
    {
      "inputs": [],
      "name": "MINTER_ROLE",
      "outputs": [
        {
          "internalType": "bytes32",
          "name": "",
          "type": "bytes32"
        }
      ],
      "stateMutability": "view",
      "type": "function"
    },
    {
      "inputs": [],
      "name": "PAUSER_ROLE",
      "outputs": [
        {
          "internalType": "bytes32",
          "name": "",
          "type": "bytes32"
        }
      ],
      "stateMutability": "view",
      "type": "function"
    },
    {
      "inputs": [
        {
          "internalType": "address",
          "name": "to",
          "type": "address"
        },
        {
          "internalType": "uint256",
          "name": "tokenId",
          "type": "uint256"
        }
      ],
      "name": "approve",
      "outputs": [],
      "stateMutability": "nonpayable",
      "type": "function"
    },
    {
      "inputs": [
        {
          "internalType": "address",
          "name": "owner",
          "type": "address"
        }
      ],
      "name": "balanceOf",
      "outputs": [
        {
          "internalType": "uint256",
          "name": "",
          "type": "uint256"
        }
      ],
      "stateMutability": "view",
      "type": "function"
    },
    {
      "inputs": [
        {
          "internalType": "uint256",
          "name": "tokenId",
          "type": "uint256"
        }
      ],
      "name": "burn",
      "outputs": [],
      "stateMutability": "nonpayable",
      "type": "function"
    },
    {
      "inputs": [
        {
          "internalType": "uint256",
          "name": "tokenId",
          "type": "uint256"
        }
      ],
      "name": "getApproved",
      "outputs": [
        {
          "internalType": "address",
          "name": "",
          "type": "address"
        }
      ],
      "stateMutability": "view",
      "type": "function"
    },
    {
      "inputs": [
        {
          "internalType": "bytes32",
          "name": "role",
          "type": "bytes32"
        }
      ],
      "name": "getRoleAdmin",
      "outputs": [
        {
          "internalType": "bytes32",
          "name": "",
          "type": "bytes32"
        }
      ],
      "stateMutability": "view",
      "type": "function"
    },
    {
      "inputs": [
        {
          "internalType": "bytes32",
          "name": "role",
          "type": "bytes32"
        },
        {
          "internalType": "address",
          "name": "account",
          "type": "address"
        }
      ],
      "name": "grantRole",
      "outputs": [],
      "stateMutability": "nonpayable",
      "type": "function"
    },
    {
      "inputs": [
        {
          "internalType": "bytes32",
          "name": "role",
          "type": "bytes32"
        },
        {
          "internalType": "address",
          "name": "account",
          "type": "address"
        }
      ],
      "name": "hasRole",
      "outputs": [
        {
          "internalType": "bool",
          "name": "",
          "type": "bool"
        }
      ],
      "stateMutability": "view",
      "type": "function"
    },
    {
      "inputs": [
        {
          "internalType": "address",
          "name": "owner",
          "type": "address"
        },
        {
          "internalType": "address",
          "name": "operator",
          "type": "address"
        }
      ],
      "name": "isApprovedForAll",
      "outputs": [
        {
          "internalType": "bool",
          "name": "",
          "type": "bool"
        }
      ],
      "stateMutability": "view",
      "type": "function"
    },
    {
      "inputs": [],
      "name": "name",
      "outputs": [
        {
          "internalType": "string",
          "name": "",
          "type": "string"
        }
      ],
      "stateMutability": "view",
      "type": "function"
    },
    {
      "inputs": [
        {
          "internalType": "uint256",
          "name": "tokenId",
          "type": "uint256"
        }
      ],
      "name": "ownerOf",
      "outputs": [
        {
          "internalType": "address",
          "name": "",
          "type": "address"
        }
      ],
      "stateMutability": "view",
      "type": "function"
    },
    {
      "inputs": [],
      "name": "pause",
      "outputs": [],
      "stateMutability": "nonpayable",
      "type": "function"
    },
    {
      "inputs": [],
      "name": "paused",
      "outputs": [
        {
          "internalType": "bool",
          "name": "",
          "type": "bool"
        }
      ],
      "stateMutability": "view",
      "type": "function"
    },
    {
      "inputs": [],
      "name": "receiver",
      "outputs": [
        {
          "internalType": "address",
          "name": "",
          "type": "address"
        }
      ],
      "stateMutability": "view",
      "type": "function"
    },
    {
      "inputs": [
        {
          "internalType": "bytes32",
          "name": "role",
          "type": "bytes32"
        },
        {
          "internalType": "address",
          "name": "account",
          "type": "address"
        }
      ],
      "name": "renounceRole",
      "outputs": [],
      "stateMutability": "nonpayable",
      "type": "function"
    },
    {
      "inputs": [
        {
          "internalType": "bytes32",
          "name": "role",
          "type": "bytes32"
        },
        {
          "internalType": "address",
          "name": "account",
          "type": "address"
        }
      ],
      "name": "revokeRole",
      "outputs": [],
      "stateMutability": "nonpayable",
      "type": "function"
    },
    {
      "inputs": [
        {
          "internalType": "uint256",
          "name": "_tokenId",
          "type": "uint256"
        },
        {
          "internalType": "uint256",
          "name": "_salePrice",
          "type": "uint256"
        }
      ],
      "name": "royaltyInfo",
      "outputs": [
        {
          "internalType": "address",
          "name": "",
          "type": "address"
        },
        {
          "internalType": "uint256",
          "name": "",
          "type": "uint256"
        }
      ],
      "stateMutability": "view",
      "type": "function"
    },
    {
      "inputs": [
        {
          "internalType": "address",
          "name": "to",
          "type": "address"
        },
        {
          "internalType": "string",
          "name": "uri",
          "type": "string"
        }
      ],
      "name": "safeMint",
      "outputs": [],
      "stateMutability": "nonpayable",
      "type": "function"
    },
    {
      "inputs": [
        {
          "internalType": "address",
          "name": "from",
          "type": "address"
        },
        {
          "internalType": "address",
          "name": "to",
          "type": "address"
        },
        {
          "internalType": "uint256",
          "name": "tokenId",
          "type": "uint256"
        }
      ],
      "name": "safeTransferFrom",
      "outputs": [],
      "stateMutability": "nonpayable",
      "type": "function"
    },
    {
      "inputs": [
        {
          "internalType": "address",
          "name": "from",
          "type": "address"
        },
        {
          "internalType": "address",
          "name": "to",
          "type": "address"
        },
        {
          "internalType": "uint256",
          "name": "tokenId",
          "type": "uint256"
        },
        {
          "internalType": "bytes",
          "name": "data",
          "type": "bytes"
        }
      ],
      "name": "safeTransferFrom",
      "outputs": [],
      "stateMutability": "nonpayable",
      "type": "function"
    },
    {
      "inputs": [
        {
          "internalType": "address",
          "name": "operator",
          "type": "address"
        },
        {
          "internalType": "bool",
          "name": "approved",
          "type": "bool"
        }
      ],
      "name": "setApprovalForAll",
      "outputs": [],
      "stateMutability": "nonpayable",
      "type": "function"
    },
    {
      "inputs": [
        {
          "internalType": "bytes4",
          "name": "interfaceId",
          "type": "bytes4"
        }
      ],
      "name": "supportsInterface",
      "outputs": [
        {
          "internalType": "bool",
          "name": "",
          "type": "bool"
        }
      ],
      "stateMutability": "view",
      "type": "function"
    },
    {
      "inputs": [],
      "name": "symbol",
      "outputs": [
        {
          "internalType": "string",
          "name": "",
          "type": "string"
        }
      ],
      "stateMutability": "view",
      "type": "function"
    },
    {
      "inputs": [
        {
          "internalType": "uint256",
          "name": "tokenId",
          "type": "uint256"
        }
      ],
      "name": "tokenURI",
      "outputs": [
        {
          "internalType": "string",
          "name": "",
          "type": "string"
        }
      ],
      "stateMutability": "view",
      "type": "function"
    },
    {
      "inputs": [
        {
          "internalType": "address",
          "name": "from",
          "type": "address"
        },
        {
          "internalType": "address",
          "name": "to",
          "type": "address"
        },
        {
          "internalType": "uint256",
          "name": "tokenId",
          "type": "uint256"
        }
      ],
      "name": "transferFrom",
      "outputs": [],
      "stateMutability": "nonpayable",
      "type": "function"
    },
    {
      "inputs": [],
      "name": "unpause",
      "outputs": [],
      "stateMutability": "nonpayable",
      "type": "function"
    }
  ],
  "bytecode": "0x608060405273dd6d37e29294a985e49ff301acc80877fc24997f600c60006101000a81548173ffffffffffffffffffffffffffffffffffffffff021916908373ffffffffffffffffffffffffffffffffffffffff1602179055503480156200006657600080fd5b50604051620049713803806200497183398181016040528101906200008c919062000510565b81818160029080519060200190620000a6929190620002c3565b508060039080519060200190620000bf929190620002c3565b5050506000600960006101000a81548160ff021916908315150217905550620000f26000801b336200015e60201b60201c565b620001247f65d7a28e3265b37a6474929f336521b332c1681b933f6cb9f3376673440d862a336200015e60201b60201c565b620001567f9f2df0fed2c77648de5860a4cc508cd0818c85b8b8a1ab4ceeef8d981c8956a6336200015e60201b60201c565b5050620005fa565b6200017082826200025060201b60201c565b6200024c576001600a600084815260200190815260200160002060000160008373ffffffffffffffffffffffffffffffffffffffff1673ffffffffffffffffffffffffffffffffffffffff16815260200190815260200160002060006101000a81548160ff021916908315150217905550620001f1620002bb60201b60201c565b73ffffffffffffffffffffffffffffffffffffffff168173ffffffffffffffffffffffffffffffffffffffff16837f2f8788117e7eff1d82e926ec794901d17c78024a50270940304540a733656f0d60405160405180910390a45b5050565b6000600a600084815260200190815260200160002060000160008373ffffffffffffffffffffffffffffffffffffffff1673ffffffffffffffffffffffffffffffffffffffff16815260200190815260200160002060009054906101000a900460ff16905092915050565b600033905090565b828054620002d190620005c4565b90600052602060002090601f016020900481019282620002f5576000855562000341565b82601f106200031057805160ff191683800117855562000341565b8280016001018555821562000341579182015b828111156200034057825182559160200191906001019062000323565b5b50905062000350919062000354565b5090565b5b808211156200036f57600081600090555060010162000355565b5090565b6000604051905090565b600080fd5b600080fd5b600080fd5b600080fd5b6000601f19601f8301169050919050565b7f4e487b7100000000000000000000000000000000000000000000000000000000600052604160045260246000fd5b620003dc8262000391565b810181811067ffffffffffffffff82111715620003fe57620003fd620003a2565b5b80604052505050565b60006200041362000373565b9050620004218282620003d1565b919050565b600067ffffffffffffffff821115620004445762000443620003a2565b5b6200044f8262000391565b9050602081019050919050565b60005b838110156200047c5780820151818401526020810190506200045f565b838111156200048c576000848401525b50505050565b6000620004a9620004a38462000426565b62000407565b905082815260208101848484011115620004c857620004c76200038c565b5b620004d58482856200045c565b509392505050565b600082601f830112620004f557620004f462000387565b5b81516200050784826020860162000492565b91505092915050565b600080604083850312156200052a57620005296200037d565b5b600083015167ffffffffffffffff8111156200054b576200054a62000382565b5b6200055985828601620004dd565b925050602083015167ffffffffffffffff8111156200057d576200057c62000382565b5b6200058b85828601620004dd565b9150509250929050565b7f4e487b7100000000000000000000000000000000000000000000000000000000600052602260045260246000fd5b60006002820490506001821680620005dd57607f821691505b60208210811415620005f457620005f362000595565b5b50919050565b614367806200060a6000396000f3fe608060405234801561001057600080fd5b50600436106101c45760003560e01c806370a08231116100f9578063c87b56dd11610097578063d547741f11610071578063d547741f146104f0578063e63ab1e91461050c578063e985e9c51461052a578063f7260d3e1461055a576101c4565b8063c87b56dd14610486578063d204c45e146104b6578063d5391393146104d2576101c4565b806395d89b41116100d357806395d89b4114610412578063a217fddf14610430578063a22cb4651461044e578063b88d4fde1461046a576101c4565b806370a08231146103a85780638456cb59146103d857806391d14854146103e2576101c4565b80632f2ff15d1161016657806342842e0e1161014057806342842e0e1461032257806342966c681461033e5780635c975abb1461035a5780636352211e14610378576101c4565b80632f2ff15d146102e057806336568abe146102fc5780633f4ba83a14610318576101c4565b8063095ea7b3116101a2578063095ea7b31461024757806323b872dd14610263578063248a9ca31461027f5780632a55205a146102af576101c4565b806301ffc9a7146101c957806306fdde03146101f9578063081812fc14610217575b600080fd5b6101e360048036038101906101de9190612e51565b610578565b6040516101f09190612e99565b60405180910390f35b61020161058a565b60405161020e9190612f4d565b60405180910390f35b610231600480360381019061022c9190612fa5565b61061c565b60405161023e9190613013565b60405180910390f35b610261600480360381019061025c919061305a565b610662565b005b61027d6004803603810190610278919061309a565b61077a565b005b61029960048036038101906102949190613123565b6107da565b6040516102a6919061315f565b60405180910390f35b6102c960048036038101906102c4919061317a565b6107fa565b6040516102d79291906131c9565b60405180910390f35b6102fa60048036038101906102f591906131f2565b6109e5565b005b610316600480360381019061031191906131f2565b610a06565b005b610320610a89565b005b61033c6004803603810190610337919061309a565b610abe565b005b61035860048036038101906103539190612fa5565b610ade565b005b610362610b3a565b60405161036f9190612e99565b60405180910390f35b610392600480360381019061038d9190612fa5565b610b51565b60405161039f9190613013565b60405180910390f35b6103c260048036038101906103bd9190613232565b610bd8565b6040516103cf919061325f565b60405180910390f35b6103e0610c90565b005b6103fc60048036038101906103f791906131f2565b610cc5565b6040516104099190612e99565b60405180910390f35b61041a610d30565b6040516104279190612f4d565b60405180910390f35b610438610dc2565b604051610445919061315f565b60405180910390f35b610468600480360381019061046391906132a6565b610dc9565b005b610484600480360381019061047f919061341b565b610ddf565b005b6104a0600480360381019061049b9190612fa5565b610e41565b6040516104ad9190612f4d565b60405180910390f35b6104d060048036038101906104cb919061353f565b610e53565b005b6104da610edd565b6040516104e7919061315f565b60405180910390f35b61050a600480360381019061050591906131f2565b610f01565b005b610514610f22565b604051610521919061315f565b60405180910390f35b610544600480360381019061053f919061359b565b610f46565b6040516105519190612e99565b60405180910390f35b610562610fda565b60405161056f9190613013565b60405180910390f35b600061058382611000565b9050919050565b6060600280546105999061360a565b80601f01602080910402602001604051908101604052809291908181526020018280546105c59061360a565b80156106125780601f106105e757610100808354040283529160200191610612565b820191906000526020600020905b8154815290600101906020018083116105f557829003601f168201915b5050505050905090565b60006106278261107a565b6006600083815260200190815260200160002060009054906101000a900473ffffffffffffffffffffffffffffffffffffffff169050919050565b600061066d82610b51565b90508073ffffffffffffffffffffffffffffffffffffffff168373ffffffffffffffffffffffffffffffffffffffff1614156106de576040517f08c379a00000000000000000000000000000000000000000000000000000000081526004016106d5906136ae565b60405180910390fd5b8073ffffffffffffffffffffffffffffffffffffffff166106fd6110c5565b73ffffffffffffffffffffffffffffffffffffffff16148061072c575061072b816107266110c5565b610f46565b5b61076b576040517f08c379a000000000000000000000000000000000000000000000000000000000815260040161076290613740565b60405180910390fd5b61077583836110cd565b505050565b61078b6107856110c5565b82611186565b6107ca576040517f08c379a00000000000000000000000000000000000000000000000000000000081526004016107c1906137d2565b60405180910390fd5b6107d583838361121b565b505050565b6000600a6000838152602001908152602001600020600101549050919050565b6000806000600160008681526020019081526020016000206040518060400160405290816000820160009054906101000a900473ffffffffffffffffffffffffffffffffffffffff1673ffffffffffffffffffffffffffffffffffffffff1673ffffffffffffffffffffffffffffffffffffffff1681526020016000820160149054906101000a90046bffffffffffffffffffffffff166bffffffffffffffffffffffff166bffffffffffffffffffffffff16815250509050600073ffffffffffffffffffffffffffffffffffffffff16816000015173ffffffffffffffffffffffffffffffffffffffff1614156109905760006040518060400160405290816000820160009054906101000a900473ffffffffffffffffffffffffffffffffffffffff1673ffffffffffffffffffffffffffffffffffffffff1673ffffffffffffffffffffffffffffffffffffffff1681526020016000820160149054906101000a90046bffffffffffffffffffffffff166bffffffffffffffffffffffff166bffffffffffffffffffffffff168152505090505b600061099a611515565b6bffffffffffffffffffffffff1682602001516bffffffffffffffffffffffff16866109c69190613821565b6109d091906138aa565b90508160000151819350935050509250929050565b6109ee826107da565b6109f78161151f565b610a018383611533565b505050565b610a0e6110c5565b73ffffffffffffffffffffffffffffffffffffffff168173ffffffffffffffffffffffffffffffffffffffff1614610a7b576040517f08c379a0000000000000000000000000000000000000000000000000000000008152600401610a729061394d565b60405180910390fd5b610a858282611614565b5050565b7f65d7a28e3265b37a6474929f336521b332c1681b933f6cb9f3376673440d862a610ab38161151f565b610abb6116f6565b50565b610ad983838360405180602001604052806000815250610ddf565b505050565b610aef610ae96110c5565b82611186565b610b2e576040517f08c379a0000000000000000000000000000000000000000000000000000000008152600401610b25906137d2565b60405180910390fd5b610b3781611759565b50565b6000600960009054906101000a900460ff16905090565b600080610b5d83611765565b9050600073ffffffffffffffffffffffffffffffffffffffff168173ffffffffffffffffffffffffffffffffffffffff161415610bcf576040517f08c379a0000000000000000000000000000000000000000000000000000000008152600401610bc6906139b9565b60405180910390fd5b80915050919050565b60008073ffffffffffffffffffffffffffffffffffffffff168273ffffffffffffffffffffffffffffffffffffffff161415610c49576040517f08c379a0000000000000000000000000000000000000000000000000000000008152600401610c4090613a4b565b60405180910390fd5b600560008373ffffffffffffffffffffffffffffffffffffffff1673ffffffffffffffffffffffffffffffffffffffff168152602001908152602001600020549050919050565b7f65d7a28e3265b37a6474929f336521b332c1681b933f6cb9f3376673440d862a610cba8161151f565b610cc26117a2565b50565b6000600a600084815260200190815260200160002060000160008373ffffffffffffffffffffffffffffffffffffffff1673ffffffffffffffffffffffffffffffffffffffff16815260200190815260200160002060009054906101000a900460ff16905092915050565b606060038054610d3f9061360a565b80601f0160208091040260200160405190810160405280929190818152602001828054610d6b9061360a565b8015610db85780601f10610d8d57610100808354040283529160200191610db8565b820191906000526020600020905b815481529060010190602001808311610d9b57829003601f168201915b5050505050905090565b6000801b81565b610ddb610dd46110c5565b8383611805565b5050565b610df0610dea6110c5565b83611186565b610e2f576040517f08c379a0000000000000000000000000000000000000000000000000000000008152600401610e26906137d2565b60405180910390fd5b610e3b84848484611972565b50505050565b6060610e4c826119ce565b9050919050565b7f9f2df0fed2c77648de5860a4cc508cd0818c85b8b8a1ab4ceeef8d981c8956a6610e7d8161151f565b6000610e89600b611ae1565b9050610e95600b611aef565b610e9f8482611b05565b610ea98184611b23565b610ed781600c60009054906101000a900473ffffffffffffffffffffffffffffffffffffffff166064611b97565b50505050565b7f9f2df0fed2c77648de5860a4cc508cd0818c85b8b8a1ab4ceeef8d981c8956a681565b610f0a826107da565b610f138161151f565b610f1d8383611614565b505050565b7f65d7a28e3265b37a6474929f336521b332c1681b933f6cb9f3376673440d862a81565b6000600760008473ffffffffffffffffffffffffffffffffffffffff1673ffffffffffffffffffffffffffffffffffffffff16815260200190815260200160002060008373ffffffffffffffffffffffffffffffffffffffff1673ffffffffffffffffffffffffffffffffffffffff16815260200190815260200160002060009054906101000a900460ff16905092915050565b600c60009054906101000a900473ffffffffffffffffffffffffffffffffffffffff1681565b60007f7965db0b000000000000000000000000000000000000000000000000000000007bffffffffffffffffffffffffffffffffffffffffffffffffffffffff1916827bffffffffffffffffffffffffffffffffffffffffffffffffffffffff19161480611073575061107282611d3f565b5b9050919050565b61108381611d51565b6110c2576040517f08c379a00000000000000000000000000000000000000000000000000000000081526004016110b9906139b9565b60405180910390fd5b50565b600033905090565b816006600083815260200190815260200160002060006101000a81548173ffffffffffffffffffffffffffffffffffffffff021916908373ffffffffffffffffffffffffffffffffffffffff160217905550808273ffffffffffffffffffffffffffffffffffffffff1661114083610b51565b73ffffffffffffffffffffffffffffffffffffffff167f8c5be1e5ebec7d5bd14f71427d1e84f3dd0314c0f7b2291e5b200ac8c7c3b92560405160405180910390a45050565b60008061119283610b51565b90508073ffffffffffffffffffffffffffffffffffffffff168473ffffffffffffffffffffffffffffffffffffffff1614806111d457506111d38185610f46565b5b8061121257508373ffffffffffffffffffffffffffffffffffffffff166111fa8461061c565b73ffffffffffffffffffffffffffffffffffffffff16145b91505092915050565b8273ffffffffffffffffffffffffffffffffffffffff1661123b82610b51565b73ffffffffffffffffffffffffffffffffffffffff1614611291576040517f08c379a000000000000000000000000000000000000000000000000000000000815260040161128890613add565b60405180910390fd5b600073ffffffffffffffffffffffffffffffffffffffff168273ffffffffffffffffffffffffffffffffffffffff161415611301576040517f08c379a00000000000000000000000000000000000000000000000000000000081526004016112f890613b6f565b60405180910390fd5b61130e8383836001611d92565b8273ffffffffffffffffffffffffffffffffffffffff1661132e82610b51565b73ffffffffffffffffffffffffffffffffffffffff1614611384576040517f08c379a000000000000000000000000000000000000000000000000000000000815260040161137b90613add565b60405180910390fd5b6006600082815260200190815260200160002060006101000a81549073ffffffffffffffffffffffffffffffffffffffff02191690556001600560008573ffffffffffffffffffffffffffffffffffffffff1673ffffffffffffffffffffffffffffffffffffffff168152602001908152602001600020600082825403925050819055506001600560008473ffffffffffffffffffffffffffffffffffffffff1673ffffffffffffffffffffffffffffffffffffffff16815260200190815260200160002060008282540192505081905550816004600083815260200190815260200160002060006101000a81548173ffffffffffffffffffffffffffffffffffffffff021916908373ffffffffffffffffffffffffffffffffffffffff160217905550808273ffffffffffffffffffffffffffffffffffffffff168473ffffffffffffffffffffffffffffffffffffffff167fddf252ad1be2c89b69c2b068fc378daa952ba7f163c4a11628f55a4df523b3ef60405160405180910390a46115108383836001611dac565b505050565b6000612710905090565b6115308161152b6110c5565b611db2565b50565b61153d8282610cc5565b611610576001600a600084815260200190815260200160002060000160008373ffffffffffffffffffffffffffffffffffffffff1673ffffffffffffffffffffffffffffffffffffffff16815260200190815260200160002060006101000a81548160ff0219169083151502179055506115b56110c5565b73ffffffffffffffffffffffffffffffffffffffff168173ffffffffffffffffffffffffffffffffffffffff16837f2f8788117e7eff1d82e926ec794901d17c78024a50270940304540a733656f0d60405160405180910390a45b5050565b61161e8282610cc5565b156116f2576000600a600084815260200190815260200160002060000160008373ffffffffffffffffffffffffffffffffffffffff1673ffffffffffffffffffffffffffffffffffffffff16815260200190815260200160002060006101000a81548160ff0219169083151502179055506116976110c5565b73ffffffffffffffffffffffffffffffffffffffff168173ffffffffffffffffffffffffffffffffffffffff16837ff6391f5c32d9c69d2a47ea670b442974b53935d1edc7fd64eb21e047a839171b60405160405180910390a45b5050565b6116fe611e37565b6000600960006101000a81548160ff0219169083151502179055507f5db9ee0a495bf2e6ff9c91a7834c1ba4fdd244a5e8aa4e537bd38aeae4b073aa6117426110c5565b60405161174f9190613013565b60405180910390a1565b61176281611e80565b50565b60006004600083815260200190815260200160002060009054906101000a900473ffffffffffffffffffffffffffffffffffffffff169050919050565b6117aa611ed3565b6001600960006101000a81548160ff0219169083151502179055507f62e78cea01bee320cd4e420270b5ea74000d11b0c9f74754ebdbfc544b05a2586117ee6110c5565b6040516117fb9190613013565b60405180910390a1565b8173ffffffffffffffffffffffffffffffffffffffff168373ffffffffffffffffffffffffffffffffffffffff161415611874576040517f08c379a000000000000000000000000000000000000000000000000000000000815260040161186b90613bdb565b60405180910390fd5b80600760008573ffffffffffffffffffffffffffffffffffffffff1673ffffffffffffffffffffffffffffffffffffffff16815260200190815260200160002060008473ffffffffffffffffffffffffffffffffffffffff1673ffffffffffffffffffffffffffffffffffffffff16815260200190815260200160002060006101000a81548160ff0219169083151502179055508173ffffffffffffffffffffffffffffffffffffffff168373ffffffffffffffffffffffffffffffffffffffff167f17307eab39ab6107e8899845ad3d59bd9653f200f220920489ca2b5937696c31836040516119659190612e99565b60405180910390a3505050565b61197d84848461121b565b61198984848484611f1d565b6119c8576040517f08c379a00000000000000000000000000000000000000000000000000000000081526004016119bf90613c6d565b60405180910390fd5b50505050565b60606119d98261107a565b60006008600084815260200190815260200160002080546119f99061360a565b80601f0160208091040260200160405190810160405280929190818152602001828054611a259061360a565b8015611a725780601f10611a4757610100808354040283529160200191611a72565b820191906000526020600020905b815481529060010190602001808311611a5557829003601f168201915b505050505090506000611a836120a5565b9050600081511415611a99578192505050611adc565b600082511115611ace578082604051602001611ab6929190613cc9565b60405160208183030381529060405292505050611adc565b611ad7846120bc565b925050505b919050565b600081600001549050919050565b6001816000016000828254019250508190555050565b611b1f828260405180602001604052806000815250612124565b5050565b611b2c82611d51565b611b6b576040517f08c379a0000000000000000000000000000000000000000000000000000000008152600401611b6290613d5f565b60405180910390fd5b80600860008481526020019081526020016000209080519060200190611b92929190612d02565b505050565b611b9f611515565b6bffffffffffffffffffffffff16816bffffffffffffffffffffffff161115611bfd576040517f08c379a0000000000000000000000000000000000000000000000000000000008152600401611bf490613df1565b60405180910390fd5b600073ffffffffffffffffffffffffffffffffffffffff168273ffffffffffffffffffffffffffffffffffffffff161415611c6d576040517f08c379a0000000000000000000000000000000000000000000000000000000008152600401611c6490613e5d565b60405180910390fd5b60405180604001604052808373ffffffffffffffffffffffffffffffffffffffff168152602001826bffffffffffffffffffffffff168152506001600085815260200190815260200160002060008201518160000160006101000a81548173ffffffffffffffffffffffffffffffffffffffff021916908373ffffffffffffffffffffffffffffffffffffffff16021790555060208201518160000160146101000a8154816bffffffffffffffffffffffff02191690836bffffffffffffffffffffffff160217905550905050505050565b6000611d4a8261217f565b9050919050565b60008073ffffffffffffffffffffffffffffffffffffffff16611d7383611765565b73ffffffffffffffffffffffffffffffffffffffff1614159050919050565b611d9a611ed3565b611da684848484612261565b50505050565b50505050565b611dbc8282610cc5565b611e3357611dc981612387565b611dd78360001c60206123b4565b604051602001611de8929190613f15565b6040516020818303038152906040526040517f08c379a0000000000000000000000000000000000000000000000000000000008152600401611e2a9190612f4d565b60405180910390fd5b5050565b611e3f610b3a565b611e7e576040517f08c379a0000000000000000000000000000000000000000000000000000000008152600401611e7590613f9b565b60405180910390fd5b565b611e89816125f0565b6000600860008381526020019081526020016000208054611ea99061360a565b905014611ed057600860008281526020019081526020016000206000611ecf9190612d88565b5b50565b611edb610b3a565b15611f1b576040517f08c379a0000000000000000000000000000000000000000000000000000000008152600401611f1290614007565b60405180910390fd5b565b6000611f3e8473ffffffffffffffffffffffffffffffffffffffff16612605565b15612098578373ffffffffffffffffffffffffffffffffffffffff1663150b7a02611f676110c5565b8786866040518563ffffffff1660e01b8152600401611f89949392919061407c565b6020604051808303816000875af1925050508015611fc557506040513d601f19601f82011682018060405250810190611fc291906140dd565b60015b612048573d8060008114611ff5576040519150601f19603f3d011682016040523d82523d6000602084013e611ffa565b606091505b50600081511415612040576040517f08c379a000000000000000000000000000000000000000000000000000000000815260040161203790613c6d565b60405180910390fd5b805181602001fd5b63150b7a0260e01b7bffffffffffffffffffffffffffffffffffffffffffffffffffffffff1916817bffffffffffffffffffffffffffffffffffffffffffffffffffffffff19161491505061209d565b600190505b949350505050565b606060405180602001604052806000815250905090565b60606120c78261107a565b60006120d16120a5565b905060008151116120f1576040518060200160405280600081525061211c565b806120fb84612628565b60405160200161210c929190613cc9565b6040516020818303038152906040525b915050919050565b61212e8383612700565b61213b6000848484611f1d565b61217a576040517f08c379a000000000000000000000000000000000000000000000000000000000815260040161217190613c6d565b60405180910390fd5b505050565b60007f80ac58cd000000000000000000000000000000000000000000000000000000007bffffffffffffffffffffffffffffffffffffffffffffffffffffffff1916827bffffffffffffffffffffffffffffffffffffffffffffffffffffffff1916148061224a57507f5b5e139f000000000000000000000000000000000000000000000000000000007bffffffffffffffffffffffffffffffffffffffffffffffffffffffff1916827bffffffffffffffffffffffffffffffffffffffffffffffffffffffff1916145b8061225a57506122598261291e565b5b9050919050565b600181111561238157600073ffffffffffffffffffffffffffffffffffffffff168473ffffffffffffffffffffffffffffffffffffffff16146122f55780600560008673ffffffffffffffffffffffffffffffffffffffff1673ffffffffffffffffffffffffffffffffffffffff16815260200190815260200160002060008282546122ed919061410a565b925050819055505b600073ffffffffffffffffffffffffffffffffffffffff168373ffffffffffffffffffffffffffffffffffffffff16146123805780600560008573ffffffffffffffffffffffffffffffffffffffff1673ffffffffffffffffffffffffffffffffffffffff1681526020019081526020016000206000828254612378919061413e565b925050819055505b5b50505050565b60606123ad8273ffffffffffffffffffffffffffffffffffffffff16601460ff166123b4565b9050919050565b6060600060028360026123c79190613821565b6123d1919061413e565b67ffffffffffffffff8111156123ea576123e96132f0565b5b6040519080825280601f01601f19166020018201604052801561241c5781602001600182028036833780820191505090505b5090507f30000000000000000000000000000000000000000000000000000000000000008160008151811061245457612453614194565b5b60200101907effffffffffffffffffffffffffffffffffffffffffffffffffffffffffffff1916908160001a9053507f7800000000000000000000000000000000000000000000000000000000000000816001815181106124b8576124b7614194565b5b60200101907effffffffffffffffffffffffffffffffffffffffffffffffffffffffffffff1916908160001a905350600060018460026124f89190613821565b612502919061413e565b90505b60018111156125a2577f3031323334353637383961626364656600000000000000000000000000000000600f86166010811061254457612543614194565b5b1a60f81b82828151811061255b5761255a614194565b5b60200101907effffffffffffffffffffffffffffffffffffffffffffffffffffffffffffff1916908160001a905350600485901c94508061259b906141c3565b9050612505565b50600084146125e6576040517f08c379a00000000000000000000000000000000000000000000000000000000081526004016125dd90614239565b60405180910390fd5b8091505092915050565b6125f981612998565b61260281612ae6565b50565b6000808273ffffffffffffffffffffffffffffffffffffffff163b119050919050565b60606000600161263784612b45565b01905060008167ffffffffffffffff811115612656576126556132f0565b5b6040519080825280601f01601f1916602001820160405280156126885781602001600182028036833780820191505090505b509050600082602001820190505b6001156126f5578080600190039150507f3031323334353637383961626364656600000000000000000000000000000000600a86061a8153600a85816126df576126de61387b565b5b04945060008514156126f0576126f5565b612696565b819350505050919050565b600073ffffffffffffffffffffffffffffffffffffffff168273ffffffffffffffffffffffffffffffffffffffff161415612770576040517f08c379a0000000000000000000000000000000000000000000000000000000008152600401612767906142a5565b60405180910390fd5b61277981611d51565b156127b9576040517f08c379a00000000000000000000000000000000000000000000000000000000081526004016127b090614311565b60405180910390fd5b6127c7600083836001611d92565b6127d081611d51565b15612810576040517f08c379a000000000000000000000000000000000000000000000000000000000815260040161280790614311565b60405180910390fd5b6001600560008473ffffffffffffffffffffffffffffffffffffffff1673ffffffffffffffffffffffffffffffffffffffff16815260200190815260200160002060008282540192505081905550816004600083815260200190815260200160002060006101000a81548173ffffffffffffffffffffffffffffffffffffffff021916908373ffffffffffffffffffffffffffffffffffffffff160217905550808273ffffffffffffffffffffffffffffffffffffffff16600073ffffffffffffffffffffffffffffffffffffffff167fddf252ad1be2c89b69c2b068fc378daa952ba7f163c4a11628f55a4df523b3ef60405160405180910390a461291a600083836001611dac565b5050565b60007f2a55205a000000000000000000000000000000000000000000000000000000007bffffffffffffffffffffffffffffffffffffffffffffffffffffffff1916827bffffffffffffffffffffffffffffffffffffffffffffffffffffffff19161480612991575061299082612c98565b5b9050919050565b60006129a382610b51565b90506129b3816000846001611d92565b6129bc82610b51565b90506006600083815260200190815260200160002060006101000a81549073ffffffffffffffffffffffffffffffffffffffff02191690556001600560008373ffffffffffffffffffffffffffffffffffffffff1673ffffffffffffffffffffffffffffffffffffffff168152602001908152602001600020600082825403925050819055506004600083815260200190815260200160002060006101000a81549073ffffffffffffffffffffffffffffffffffffffff021916905581600073ffffffffffffffffffffffffffffffffffffffff168273ffffffffffffffffffffffffffffffffffffffff167fddf252ad1be2c89b69c2b068fc378daa952ba7f163c4a11628f55a4df523b3ef60405160405180910390a4612ae2816000846001611dac565b5050565b60016000828152602001908152602001600020600080820160006101000a81549073ffffffffffffffffffffffffffffffffffffffff02191690556000820160146101000a8154906bffffffffffffffffffffffff0219169055505050565b600080600090507a184f03e93ff9f4daa797ed6e38ed64bf6a1f0100000000000000008310612ba3577a184f03e93ff9f4daa797ed6e38ed64bf6a1f0100000000000000008381612b9957612b9861387b565b5b0492506040810190505b6d04ee2d6d415b85acef81000000008310612be0576d04ee2d6d415b85acef81000000008381612bd657612bd561387b565b5b0492506020810190505b662386f26fc100008310612c0f57662386f26fc100008381612c0557612c0461387b565b5b0492506010810190505b6305f5e1008310612c38576305f5e1008381612c2e57612c2d61387b565b5b0492506008810190505b6127108310612c5d576127108381612c5357612c5261387b565b5b0492506004810190505b60648310612c805760648381612c7657612c7561387b565b5b0492506002810190505b600a8310612c8f576001810190505b80915050919050565b60007f01ffc9a7000000000000000000000000000000000000000000000000000000007bffffffffffffffffffffffffffffffffffffffffffffffffffffffff1916827bffffffffffffffffffffffffffffffffffffffffffffffffffffffff1916149050919050565b828054612d0e9061360a565b90600052602060002090601f016020900481019282612d305760008555612d77565b82601f10612d4957805160ff1916838001178555612d77565b82800160010185558215612d77579182015b82811115612d76578251825591602001919060010190612d5b565b5b509050612d849190612dc8565b5090565b508054612d949061360a565b6000825580601f10612da65750612dc5565b601f016020900490600052602060002090810190612dc49190612dc8565b5b50565b5b80821115612de1576000816000905550600101612dc9565b5090565b6000604051905090565b600080fd5b600080fd5b60007fffffffff0000000000000000000000000000000000000000000000000000000082169050919050565b612e2e81612df9565b8114612e3957600080fd5b50565b600081359050612e4b81612e25565b92915050565b600060208284031215612e6757612e66612def565b5b6000612e7584828501612e3c565b91505092915050565b60008115159050919050565b612e9381612e7e565b82525050565b6000602082019050612eae6000830184612e8a565b92915050565b600081519050919050565b600082825260208201905092915050565b60005b83811015612eee578082015181840152602081019050612ed3565b83811115612efd576000848401525b50505050565b6000601f19601f8301169050919050565b6000612f1f82612eb4565b612f298185612ebf565b9350612f39818560208601612ed0565b612f4281612f03565b840191505092915050565b60006020820190508181036000830152612f678184612f14565b905092915050565b6000819050919050565b612f8281612f6f565b8114612f8d57600080fd5b50565b600081359050612f9f81612f79565b92915050565b600060208284031215612fbb57612fba612def565b5b6000612fc984828501612f90565b91505092915050565b600073ffffffffffffffffffffffffffffffffffffffff82169050919050565b6000612ffd82612fd2565b9050919050565b61300d81612ff2565b82525050565b60006020820190506130286000830184613004565b92915050565b61303781612ff2565b811461304257600080fd5b50565b6000813590506130548161302e565b92915050565b6000806040838503121561307157613070612def565b5b600061307f85828601613045565b925050602061309085828601612f90565b9150509250929050565b6000806000606084860312156130b3576130b2612def565b5b60006130c186828701613045565b93505060206130d286828701613045565b92505060406130e386828701612f90565b9150509250925092565b6000819050919050565b613100816130ed565b811461310b57600080fd5b50565b60008135905061311d816130f7565b92915050565b60006020828403121561313957613138612def565b5b60006131478482850161310e565b91505092915050565b613159816130ed565b82525050565b60006020820190506131746000830184613150565b92915050565b6000806040838503121561319157613190612def565b5b600061319f85828601612f90565b92505060206131b085828601612f90565b9150509250929050565b6131c381612f6f565b82525050565b60006040820190506131de6000830185613004565b6131eb60208301846131ba565b9392505050565b6000806040838503121561320957613208612def565b5b60006132178582860161310e565b925050602061322885828601613045565b9150509250929050565b60006020828403121561324857613247612def565b5b600061325684828501613045565b91505092915050565b600060208201905061327460008301846131ba565b92915050565b61328381612e7e565b811461328e57600080fd5b50565b6000813590506132a08161327a565b92915050565b600080604083850312156132bd576132bc612def565b5b60006132cb85828601613045565b92505060206132dc85828601613291565b9150509250929050565b600080fd5b600080fd5b7f4e487b7100000000000000000000000000000000000000000000000000000000600052604160045260246000fd5b61332882612f03565b810181811067ffffffffffffffff82111715613347576133466132f0565b5b80604052505050565b600061335a612de5565b9050613366828261331f565b919050565b600067ffffffffffffffff821115613386576133856132f0565b5b61338f82612f03565b9050602081019050919050565b82818337600083830152505050565b60006133be6133b98461336b565b613350565b9050828152602081018484840111156133da576133d96132eb565b5b6133e584828561339c565b509392505050565b600082601f830112613402576134016132e6565b5b81356134128482602086016133ab565b91505092915050565b6000806000806080858703121561343557613434612def565b5b600061344387828801613045565b945050602061345487828801613045565b935050604061346587828801612f90565b925050606085013567ffffffffffffffff81111561348657613485612df4565b5b613492878288016133ed565b91505092959194509250565b600067ffffffffffffffff8211156134b9576134b86132f0565b5b6134c282612f03565b9050602081019050919050565b60006134e26134dd8461349e565b613350565b9050828152602081018484840111156134fe576134fd6132eb565b5b61350984828561339c565b509392505050565b600082601f830112613526576135256132e6565b5b81356135368482602086016134cf565b91505092915050565b6000806040838503121561355657613555612def565b5b600061356485828601613045565b925050602083013567ffffffffffffffff81111561358557613584612df4565b5b61359185828601613511565b9150509250929050565b600080604083850312156135b2576135b1612def565b5b60006135c085828601613045565b92505060206135d185828601613045565b9150509250929050565b7f4e487b7100000000000000000000000000000000000000000000000000000000600052602260045260246000fd5b6000600282049050600182168061362257607f821691505b60208210811415613636576136356135db565b5b50919050565b7f4552433732313a20617070726f76616c20746f2063757272656e74206f776e6560008201527f7200000000000000000000000000000000000000000000000000000000000000602082015250565b6000613698602183612ebf565b91506136a38261363c565b604082019050919050565b600060208201905081810360008301526136c78161368b565b9050919050565b7f4552433732313a20617070726f76652063616c6c6572206973206e6f7420746f60008201527f6b656e206f776e6572206f7220617070726f76656420666f7220616c6c000000602082015250565b600061372a603d83612ebf565b9150613735826136ce565b604082019050919050565b600060208201905081810360008301526137598161371d565b9050919050565b7f4552433732313a2063616c6c6572206973206e6f7420746f6b656e206f776e6560008201527f72206f7220617070726f76656400000000000000000000000000000000000000602082015250565b60006137bc602d83612ebf565b91506137c782613760565b604082019050919050565b600060208201905081810360008301526137eb816137af565b9050919050565b7f4e487b7100000000000000000000000000000000000000000000000000000000600052601160045260246000fd5b600061382c82612f6f565b915061383783612f6f565b9250817fffffffffffffffffffffffffffffffffffffffffffffffffffffffffffffffff04831182151516156138705761386f6137f2565b5b828202905092915050565b7f4e487b7100000000000000000000000000000000000000000000000000000000600052601260045260246000fd5b60006138b582612f6f565b91506138c083612f6f565b9250826138d0576138cf61387b565b5b828204905092915050565b7f416363657373436f6e74726f6c3a2063616e206f6e6c792072656e6f756e636560008201527f20726f6c657320666f722073656c660000000000000000000000000000000000602082015250565b6000613937602f83612ebf565b9150613942826138db565b604082019050919050565b600060208201905081810360008301526139668161392a565b9050919050565b7f4552433732313a20696e76616c696420746f6b656e2049440000000000000000600082015250565b60006139a3601883612ebf565b91506139ae8261396d565b602082019050919050565b600060208201905081810360008301526139d281613996565b9050919050565b7f4552433732313a2061646472657373207a65726f206973206e6f74206120766160008201527f6c6964206f776e65720000000000000000000000000000000000000000000000602082015250565b6000613a35602983612ebf565b9150613a40826139d9565b604082019050919050565b60006020820190508181036000830152613a6481613a28565b9050919050565b7f4552433732313a207472616e736665722066726f6d20696e636f72726563742060008201527f6f776e6572000000000000000000000000000000000000000000000000000000602082015250565b6000613ac7602583612ebf565b9150613ad282613a6b565b604082019050919050565b60006020820190508181036000830152613af681613aba565b9050919050565b7f4552433732313a207472616e7366657220746f20746865207a65726f2061646460008201527f7265737300000000000000000000000000000000000000000000000000000000602082015250565b6000613b59602483612ebf565b9150613b6482613afd565b604082019050919050565b60006020820190508181036000830152613b8881613b4c565b9050919050565b7f4552433732313a20617070726f766520746f2063616c6c657200000000000000600082015250565b6000613bc5601983612ebf565b9150613bd082613b8f565b602082019050919050565b60006020820190508181036000830152613bf481613bb8565b9050919050565b7f4552433732313a207472616e7366657220746f206e6f6e20455243373231526560008201527f63656976657220696d706c656d656e7465720000000000000000000000000000602082015250565b6000613c57603283612ebf565b9150613c6282613bfb565b604082019050919050565b60006020820190508181036000830152613c8681613c4a565b9050919050565b600081905092915050565b6000613ca382612eb4565b613cad8185613c8d565b9350613cbd818560208601612ed0565b80840191505092915050565b6000613cd58285613c98565b9150613ce18284613c98565b91508190509392505050565b7f45524337323155524953746f726167653a2055524920736574206f66206e6f6e60008201527f6578697374656e7420746f6b656e000000000000000000000000000000000000602082015250565b6000613d49602e83612ebf565b9150613d5482613ced565b604082019050919050565b60006020820190508181036000830152613d7881613d3c565b9050919050565b7f455243323938313a20726f79616c7479206665652077696c6c2065786365656460008201527f2073616c65507269636500000000000000000000000000000000000000000000602082015250565b6000613ddb602a83612ebf565b9150613de682613d7f565b604082019050919050565b60006020820190508181036000830152613e0a81613dce565b9050919050565b7f455243323938313a20496e76616c696420706172616d65746572730000000000600082015250565b6000613e47601b83612ebf565b9150613e5282613e11565b602082019050919050565b60006020820190508181036000830152613e7681613e3a565b9050919050565b7f416363657373436f6e74726f6c3a206163636f756e7420000000000000000000600082015250565b6000613eb3601783613c8d565b9150613ebe82613e7d565b601782019050919050565b7f206973206d697373696e6720726f6c6520000000000000000000000000000000600082015250565b6000613eff601183613c8d565b9150613f0a82613ec9565b601182019050919050565b6000613f2082613ea6565b9150613f2c8285613c98565b9150613f3782613ef2565b9150613f438284613c98565b91508190509392505050565b7f5061757361626c653a206e6f7420706175736564000000000000000000000000600082015250565b6000613f85601483612ebf565b9150613f9082613f4f565b602082019050919050565b60006020820190508181036000830152613fb481613f78565b9050919050565b7f5061757361626c653a2070617573656400000000000000000000000000000000600082015250565b6000613ff1601083612ebf565b9150613ffc82613fbb565b602082019050919050565b6000602082019050818103600083015261402081613fe4565b9050919050565b600081519050919050565b600082825260208201905092915050565b600061404e82614027565b6140588185614032565b9350614068818560208601612ed0565b61407181612f03565b840191505092915050565b60006080820190506140916000830187613004565b61409e6020830186613004565b6140ab60408301856131ba565b81810360608301526140bd8184614043565b905095945050505050565b6000815190506140d781612e25565b92915050565b6000602082840312156140f3576140f2612def565b5b6000614101848285016140c8565b91505092915050565b600061411582612f6f565b915061412083612f6f565b925082821015614133576141326137f2565b5b828203905092915050565b600061414982612f6f565b915061415483612f6f565b9250827fffffffffffffffffffffffffffffffffffffffffffffffffffffffffffffffff03821115614189576141886137f2565b5b828201905092915050565b7f4e487b7100000000000000000000000000000000000000000000000000000000600052603260045260246000fd5b60006141ce82612f6f565b915060008214156141e2576141e16137f2565b5b600182039050919050565b7f537472696e67733a20686578206c656e67746820696e73756666696369656e74600082015250565b6000614223602083612ebf565b915061422e826141ed565b602082019050919050565b6000602082019050818103600083015261425281614216565b9050919050565b7f4552433732313a206d696e7420746f20746865207a65726f2061646472657373600082015250565b600061428f602083612ebf565b915061429a82614259565b602082019050919050565b600060208201905081810360008301526142be81614282565b9050919050565b7f4552433732313a20746f6b656e20616c7265616479206d696e74656400000000600082015250565b60006142fb601c83612ebf565b9150614306826142c5565b602082019050919050565b6000602082019050818103600083015261432a816142ee565b905091905056fea264697066735822122060ff73e3a3705fe0ab73bbe0bfa5019bf110dc5ca3f05dcb60d39be815f07b9264736f6c634300080c0033",
  "linkReferences": {},
  "deployedLinkReferences": {}
}