{
  "_format": "hh-sol-artifact-1",
  "contractName": "NftMinter",
  "sourceName": "contracts/NftMinter.sol",
  "abi": [
    {
      "inputs": [
        {
          "internalType": "contract NftInstagram",
          "name": "_nftContract",
          "type": "address"
        },
        {
          "internalType": "string",
          "name": "_minterVersion",
          "type": "string"
        }
      ],
      "stateMutability": "nonpayable",
      "type": "constructor"
    },
    {
      "anonymous": false,
      "inputs": [
        {
          "indexed": true,
          "internalType": "address",
          "name": "previousOwner",
          "type": "address"
        },
        {
          "indexed": true,
          "internalType": "address",
          "name": "newOwner",
          "type": "address"
        }
      ],
      "name": "OwnershipTransferred",
      "type": "event"
    },
    {
      "anonymous": false,
      "inputs": [
        {
          "indexed": false,
          "internalType": "address",
          "name": "account",
          "type": "address"
        }
      ],
      "name": "Paused",
      "type": "event"
    },
    {
      "anonymous": false,
      "inputs": [
        {
          "indexed": false,
          "internalType": "address",
          "name": "account",
          "type": "address"
        }
      ],
      "name": "Unpaused",
      "type": "event"
    },
    {
      "inputs": [
        {
          "internalType": "string",
          "name": "uri",
          "type": "string"
        }
      ],
      "name": "mint",
      "outputs": [],
      "stateMutability": "payable",
      "type": "function"
    },
    {
      "inputs": [],
      "name": "minterName",
      "outputs": [
        {
          "internalType": "string",
          "name": "",
          "type": "string"
        }
      ],
      "stateMutability": "view",
      "type": "function"
    },
    {
      "inputs": [],
      "name": "minterVersion",
      "outputs": [
        {
          "internalType": "string",
          "name": "",
          "type": "string"
        }
      ],
      "stateMutability": "view",
      "type": "function"
    },
    {
      "inputs": [],
      "name": "nftContract",
      "outputs": [
        {
          "internalType": "contract NftInstagram",
          "name": "",
          "type": "address"
        }
      ],
      "stateMutability": "view",
      "type": "function"
    },
    {
      "inputs": [],
      "name": "owner",
      "outputs": [
        {
          "internalType": "address",
          "name": "",
          "type": "address"
        }
      ],
      "stateMutability": "view",
      "type": "function"
    },
    {
      "inputs": [],
      "name": "pause",
      "outputs": [],
      "stateMutability": "nonpayable",
      "type": "function"
    },
    {
      "inputs": [],
      "name": "paused",
      "outputs": [
        {
          "internalType": "bool",
          "name": "",
          "type": "bool"
        }
      ],
      "stateMutability": "view",
      "type": "function"
    },
    {
      "inputs": [],
      "name": "renounceOwnership",
      "outputs": [],
      "stateMutability": "nonpayable",
      "type": "function"
    },
    {
      "inputs": [
        {
          "internalType": "uint256",
          "name": "amount",
          "type": "uint256"
        },
        {
          "internalType": "address",
          "name": "recipient",
          "type": "address"
        }
      ],
      "name": "rescueNative",
      "outputs": [],
      "stateMutability": "nonpayable",
      "type": "function"
    },
    {
      "inputs": [
        {
          "internalType": "address",
          "name": "token",
          "type": "address"
        },
        {
          "internalType": "uint256",
          "name": "amount",
          "type": "uint256"
        },
        {
          "internalType": "address",
          "name": "recipient",
          "type": "address"
        }
      ],
      "name": "rescueStrandedTokens",
      "outputs": [],
      "stateMutability": "nonpayable",
      "type": "function"
    },
    {
      "inputs": [
        {
          "internalType": "address",
          "name": "newOwner",
          "type": "address"
        }
      ],
      "name": "transferOwnership",
      "outputs": [],
      "stateMutability": "nonpayable",
      "type": "function"
    },
    {
      "inputs": [],
      "name": "unpause",
      "outputs": [],
      "stateMutability": "nonpayable",
      "type": "function"
    }
  ],
  "bytecode": "0x6101606040523480156200001257600080fd5b5060405162001f9c38038062001f9c833981810160405281019062000038919062000692565b8173ffffffffffffffffffffffffffffffffffffffff166306fdde036040518163ffffffff1660e01b8152600401600060405180830381865afa15801562000084573d6000803e3d6000fd5b505050506040513d6000823e3d601f19601f82011682018060405250810190620000af9190620006f8565b604051602001620000c19190620007bc565b6040516020818303038152906040528160008060006101000a81548160ff0219169083151502179055506200010b620000ff620002c360201b60201c565b620002cb60201b60201c565b60008280519060200120905060008280519060200120905060007f8b73c3c69bb8fe3d512ecc4cf759cc79239f7b179b0ffacaa9a75d522b39400f90508260e081815250508161010081815250504660a08181525050620001748184846200039060201b60201c565b608081815250503073ffffffffffffffffffffffffffffffffffffffff1660c08173ffffffffffffffffffffffffffffffffffffffff168152505080610120818152505050505050508173ffffffffffffffffffffffffffffffffffffffff166101408173ffffffffffffffffffffffffffffffffffffffff16815250508173ffffffffffffffffffffffffffffffffffffffff166306fdde036040518163ffffffff1660e01b8152600401600060405180830381865afa1580156200023e573d6000803e3d6000fd5b505050506040513d6000823e3d601f19601f82011682018060405250810190620002699190620006f8565b6040516020016200027b9190620007bc565b60405160208183030381529060405260019080519060200190620002a1929190620003cc565b508060029080519060200190620002ba929190620003cc565b505050620008ef565b600033905090565b60008060019054906101000a900473ffffffffffffffffffffffffffffffffffffffff16905081600060016101000a81548173ffffffffffffffffffffffffffffffffffffffff021916908373ffffffffffffffffffffffffffffffffffffffff1602179055508173ffffffffffffffffffffffffffffffffffffffff168173ffffffffffffffffffffffffffffffffffffffff167f8be0079c531659141344cd1fd0a4f28419497f9722a3daafe3b4186f6b6457e060405160405180910390a35050565b60008383834630604051602001620003ad9594939291906200082d565b6040516020818303038152906040528051906020012090509392505050565b828054620003da90620008b9565b90600052602060002090601f016020900481019282620003fe57600085556200044a565b82601f106200041957805160ff19168380011785556200044a565b828001600101855582156200044a579182015b82811115620004495782518255916020019190600101906200042c565b5b5090506200045991906200045d565b5090565b5b80821115620004785760008160009055506001016200045e565b5090565b6000604051905090565b600080fd5b600080fd5b600073ffffffffffffffffffffffffffffffffffffffff82169050919050565b6000620004bd8262000490565b9050919050565b6000620004d182620004b0565b9050919050565b620004e381620004c4565b8114620004ef57600080fd5b50565b6000815190506200050381620004d8565b92915050565b600080fd5b600080fd5b6000601f19601f8301169050919050565b7f4e487b7100000000000000000000000000000000000000000000000000000000600052604160045260246000fd5b6200055e8262000513565b810181811067ffffffffffffffff8211171562000580576200057f62000524565b5b80604052505050565b6000620005956200047c565b9050620005a3828262000553565b919050565b600067ffffffffffffffff821115620005c657620005c562000524565b5b620005d18262000513565b9050602081019050919050565b60005b83811015620005fe578082015181840152602081019050620005e1565b838111156200060e576000848401525b50505050565b60006200062b6200062584620005a8565b62000589565b9050828152602081018484840111156200064a57620006496200050e565b5b62000657848285620005de565b509392505050565b600082601f83011262000677576200067662000509565b5b81516200068984826020860162000614565b91505092915050565b60008060408385031215620006ac57620006ab62000486565b5b6000620006bc85828601620004f2565b925050602083015167ffffffffffffffff811115620006e057620006df6200048b565b5b620006ee858286016200065f565b9150509250929050565b60006020828403121562000711576200071062000486565b5b600082015167ffffffffffffffff8111156200073257620007316200048b565b5b62000740848285016200065f565b91505092915050565b600081519050919050565b600081905092915050565b60006200076c8262000749565b62000778818562000754565b93506200078a818560208601620005de565b80840191505092915050565b7f204d696e74657200000000000000000000000000000000000000000000000000815250565b6000620007ca82846200075f565b9150620007d78262000796565b60078201915081905092915050565b6000819050919050565b620007fb81620007e6565b82525050565b6000819050919050565b620008168162000801565b82525050565b6200082781620004b0565b82525050565b600060a082019050620008446000830188620007f0565b620008536020830187620007f0565b620008626040830186620007f0565b6200087160608301856200080b565b6200088060808301846200081c565b9695505050505050565b7f4e487b7100000000000000000000000000000000000000000000000000000000600052602260045260246000fd5b60006002820490506001821680620008d257607f821691505b60208210811415620008e957620008e86200088a565b5b50919050565b60805160a05160c05160e05161010051610120516101405161165d6200093f6000396000818161055f015261058b015260005050600050506000505060005050600050506000505061165d6000f3fe6080604052600436106100a75760003560e01c80638da5cb5b116100645780638da5cb5b1461016e578063b39cb69914610199578063d3ddabe6146101c4578063d56d229d146101ef578063d85d3d271461021a578063f2fde38b14610236576100a7565b806318af4c9e146100ac5780633f4ba83a146100d557806349d4f22e146100ec5780635c975abb14610115578063715018a6146101405780638456cb5914610157575b600080fd5b3480156100b857600080fd5b506100d360048036038101906100ce9190610d02565b61025f565b005b3480156100e157600080fd5b506100ea610322565b005b3480156100f857600080fd5b50610113600480360381019061010e9190610d42565b610334565b005b34801561012157600080fd5b5061012a6103dc565b6040516101379190610db0565b60405180910390f35b34801561014c57600080fd5b506101556103f2565b005b34801561016357600080fd5b5061016c610406565b005b34801561017a57600080fd5b50610183610418565b6040516101909190610dda565b60405180910390f35b3480156101a557600080fd5b506101ae610441565b6040516101bb9190610e8e565b60405180910390f35b3480156101d057600080fd5b506101d96104cf565b6040516101e69190610e8e565b60405180910390f35b3480156101fb57600080fd5b5061020461055d565b6040516102119190610f0f565b60405180910390f35b610234600480360381019061022f919061105f565b610581565b005b34801561024257600080fd5b5061025d600480360381019061025891906110a8565b610619565b005b61026761069d565b600073ffffffffffffffffffffffffffffffffffffffff168173ffffffffffffffffffffffffffffffffffffffff1614156102d7576040517f08c379a00000000000000000000000000000000000000000000000000000000081526004016102ce90611121565b60405180910390fd5b8073ffffffffffffffffffffffffffffffffffffffff166108fc839081150290604051600060405180830381858888f1935050505015801561031d573d6000803e3d6000fd5b505050565b61032a61069d565b61033261071b565b565b61033c61069d565b600073ffffffffffffffffffffffffffffffffffffffff168173ffffffffffffffffffffffffffffffffffffffff1614156103ac576040517f08c379a00000000000000000000000000000000000000000000000000000000081526004016103a390611121565b60405180910390fd5b6103d781838573ffffffffffffffffffffffffffffffffffffffff1661077d9092919063ffffffff16565b505050565b60008060009054906101000a900460ff16905090565b6103fa61069d565b6104046000610803565b565b61040e61069d565b6104166108c8565b565b60008060019054906101000a900473ffffffffffffffffffffffffffffffffffffffff16905090565b6001805461044e90611170565b80601f016020809104026020016040519081016040528092919081815260200182805461047a90611170565b80156104c75780601f1061049c576101008083540402835291602001916104c7565b820191906000526020600020905b8154815290600101906020018083116104aa57829003601f168201915b505050505081565b600280546104dc90611170565b80601f016020809104026020016040519081016040528092919081815260200182805461050890611170565b80156105555780601f1061052a57610100808354040283529160200191610555565b820191906000526020600020905b81548152906001019060200180831161053857829003601f168201915b505050505081565b7f000000000000000000000000000000000000000000000000000000000000000081565b61058961092a565b7f000000000000000000000000000000000000000000000000000000000000000073ffffffffffffffffffffffffffffffffffffffff1663d204c45e33836040518363ffffffff1660e01b81526004016105e49291906111a2565b600060405180830381600087803b1580156105fe57600080fd5b505af1158015610612573d6000803e3d6000fd5b5050505050565b61062161069d565b600073ffffffffffffffffffffffffffffffffffffffff168173ffffffffffffffffffffffffffffffffffffffff161415610691576040517f08c379a000000000000000000000000000000000000000000000000000000000815260040161068890611244565b60405180910390fd5b61069a81610803565b50565b6106a5610974565b73ffffffffffffffffffffffffffffffffffffffff166106c3610418565b73ffffffffffffffffffffffffffffffffffffffff1614610719576040517f08c379a0000000000000000000000000000000000000000000000000000000008152600401610710906112b0565b60405180910390fd5b565b61072361097c565b60008060006101000a81548160ff0219169083151502179055507f5db9ee0a495bf2e6ff9c91a7834c1ba4fdd244a5e8aa4e537bd38aeae4b073aa610766610974565b6040516107739190610dda565b60405180910390a1565b6107fe8363a9059cbb60e01b848460405160240161079c9291906112df565b604051602081830303815290604052907bffffffffffffffffffffffffffffffffffffffffffffffffffffffff19166020820180517bffffffffffffffffffffffffffffffffffffffffffffffffffffffff83818316178352505050506109c5565b505050565b60008060019054906101000a900473ffffffffffffffffffffffffffffffffffffffff16905081600060016101000a81548173ffffffffffffffffffffffffffffffffffffffff021916908373ffffffffffffffffffffffffffffffffffffffff1602179055508173ffffffffffffffffffffffffffffffffffffffff168173ffffffffffffffffffffffffffffffffffffffff167f8be0079c531659141344cd1fd0a4f28419497f9722a3daafe3b4186f6b6457e060405160405180910390a35050565b6108d061092a565b60016000806101000a81548160ff0219169083151502179055507f62e78cea01bee320cd4e420270b5ea74000d11b0c9f74754ebdbfc544b05a258610913610974565b6040516109209190610dda565b60405180910390a1565b6109326103dc565b15610972576040517f08c379a000000000000000000000000000000000000000000000000000000000815260040161096990611354565b60405180910390fd5b565b600033905090565b6109846103dc565b6109c3576040517f08c379a00000000000000000000000000000000000000000000000000000000081526004016109ba906113c0565b60405180910390fd5b565b6000610a27826040518060400160405280602081526020017f5361666545524332303a206c6f772d6c6576656c2063616c6c206661696c65648152508573ffffffffffffffffffffffffffffffffffffffff16610a8c9092919063ffffffff16565b9050600081511115610a875780806020019051810190610a47919061140c565b610a86576040517f08c379a0000000000000000000000000000000000000000000000000000000008152600401610a7d906114ab565b60405180910390fd5b5b505050565b6060610a9b8484600085610aa4565b90509392505050565b606082471015610ae9576040517f08c379a0000000000000000000000000000000000000000000000000000000008152600401610ae09061153d565b60405180910390fd5b6000808673ffffffffffffffffffffffffffffffffffffffff168587604051610b1291906115a4565b60006040518083038185875af1925050503d8060008114610b4f576040519150601f19603f3d011682016040523d82523d6000602084013e610b54565b606091505b5091509150610b6587838387610b71565b92505050949350505050565b60608315610bd457600083511415610bcc57610b8c85610be7565b610bcb576040517f08c379a0000000000000000000000000000000000000000000000000000000008152600401610bc290611607565b60405180910390fd5b5b829050610bdf565b610bde8383610c0a565b5b949350505050565b6000808273ffffffffffffffffffffffffffffffffffffffff163b119050919050565b600082511115610c1d5781518083602001fd5b806040517f08c379a0000000000000000000000000000000000000000000000000000000008152600401610c519190610e8e565b60405180910390fd5b6000604051905090565b600080fd5b600080fd5b6000819050919050565b610c8181610c6e565b8114610c8c57600080fd5b50565b600081359050610c9e81610c78565b92915050565b600073ffffffffffffffffffffffffffffffffffffffff82169050919050565b6000610ccf82610ca4565b9050919050565b610cdf81610cc4565b8114610cea57600080fd5b50565b600081359050610cfc81610cd6565b92915050565b60008060408385031215610d1957610d18610c64565b5b6000610d2785828601610c8f565b9250506020610d3885828601610ced565b9150509250929050565b600080600060608486031215610d5b57610d5a610c64565b5b6000610d6986828701610ced565b9350506020610d7a86828701610c8f565b9250506040610d8b86828701610ced565b9150509250925092565b60008115159050919050565b610daa81610d95565b82525050565b6000602082019050610dc56000830184610da1565b92915050565b610dd481610cc4565b82525050565b6000602082019050610def6000830184610dcb565b92915050565b600081519050919050565b600082825260208201905092915050565b60005b83811015610e2f578082015181840152602081019050610e14565b83811115610e3e576000848401525b50505050565b6000601f19601f8301169050919050565b6000610e6082610df5565b610e6a8185610e00565b9350610e7a818560208601610e11565b610e8381610e44565b840191505092915050565b60006020820190508181036000830152610ea88184610e55565b905092915050565b6000819050919050565b6000610ed5610ed0610ecb84610ca4565b610eb0565b610ca4565b9050919050565b6000610ee782610eba565b9050919050565b6000610ef982610edc565b9050919050565b610f0981610eee565b82525050565b6000602082019050610f246000830184610f00565b92915050565b600080fd5b600080fd5b7f4e487b7100000000000000000000000000000000000000000000000000000000600052604160045260246000fd5b610f6c82610e44565b810181811067ffffffffffffffff82111715610f8b57610f8a610f34565b5b80604052505050565b6000610f9e610c5a565b9050610faa8282610f63565b919050565b600067ffffffffffffffff821115610fca57610fc9610f34565b5b610fd382610e44565b9050602081019050919050565b82818337600083830152505050565b6000611002610ffd84610faf565b610f94565b90508281526020810184848401111561101e5761101d610f2f565b5b611029848285610fe0565b509392505050565b600082601f83011261104657611045610f2a565b5b8135611056848260208601610fef565b91505092915050565b60006020828403121561107557611074610c64565b5b600082013567ffffffffffffffff81111561109357611092610c69565b5b61109f84828501611031565b91505092915050565b6000602082840312156110be576110bd610c64565b5b60006110cc84828501610ced565b91505092915050565b7f446f6e27742073656e6420746f207a65726f2061646472657373000000000000600082015250565b600061110b601a83610e00565b9150611116826110d5565b602082019050919050565b6000602082019050818103600083015261113a816110fe565b9050919050565b7f4e487b7100000000000000000000000000000000000000000000000000000000600052602260045260246000fd5b6000600282049050600182168061118857607f821691505b6020821081141561119c5761119b611141565b5b50919050565b60006040820190506111b76000830185610dcb565b81810360208301526111c98184610e55565b90509392505050565b7f4f776e61626c653a206e6577206f776e657220697320746865207a65726f206160008201527f6464726573730000000000000000000000000000000000000000000000000000602082015250565b600061122e602683610e00565b9150611239826111d2565b604082019050919050565b6000602082019050818103600083015261125d81611221565b9050919050565b7f4f776e61626c653a2063616c6c6572206973206e6f7420746865206f776e6572600082015250565b600061129a602083610e00565b91506112a582611264565b602082019050919050565b600060208201905081810360008301526112c98161128d565b9050919050565b6112d981610c6e565b82525050565b60006040820190506112f46000830185610dcb565b61130160208301846112d0565b9392505050565b7f5061757361626c653a2070617573656400000000000000000000000000000000600082015250565b600061133e601083610e00565b915061134982611308565b602082019050919050565b6000602082019050818103600083015261136d81611331565b9050919050565b7f5061757361626c653a206e6f7420706175736564000000000000000000000000600082015250565b60006113aa601483610e00565b91506113b582611374565b602082019050919050565b600060208201905081810360008301526113d98161139d565b9050919050565b6113e981610d95565b81146113f457600080fd5b50565b600081519050611406816113e0565b92915050565b60006020828403121561142257611421610c64565b5b6000611430848285016113f7565b91505092915050565b7f5361666545524332303a204552433230206f7065726174696f6e20646964206e60008201527f6f74207375636365656400000000000000000000000000000000000000000000602082015250565b6000611495602a83610e00565b91506114a082611439565b604082019050919050565b600060208201905081810360008301526114c481611488565b9050919050565b7f416464726573733a20696e73756666696369656e742062616c616e636520666f60008201527f722063616c6c0000000000000000000000000000000000000000000000000000602082015250565b6000611527602683610e00565b9150611532826114cb565b604082019050919050565b600060208201905081810360008301526115568161151a565b9050919050565b600081519050919050565b600081905092915050565b600061157e8261155d565b6115888185611568565b9350611598818560208601610e11565b80840191505092915050565b60006115b08284611573565b915081905092915050565b7f416464726573733a2063616c6c20746f206e6f6e2d636f6e7472616374000000600082015250565b60006115f1601d83610e00565b91506115fc826115bb565b602082019050919050565b60006020820190508181036000830152611620816115e4565b905091905056fea26469706673582212208835506f4f5c0e9b0f8cdc98e39d6f32cd71c7c23165c469bfaff3f7aecc235964736f6c634300080c0033",
  "linkReferences": {},
  "deployedLinkReferences": {}
}